:100000000C9450000C9477020C9477020C947702B5
:100010000C9477020C9477020C9477020C9477027C
:100020000C9477020C9477020C9477020C9477026C
:100030000C9477020C94A2010C9477020C94770232
:100040000C9477020C9477020C9477020C9477024C
:100050000C9477020C9477020C9477020C9477023C
:100060000C9477020C9477020C9477020C9477022C
:100070000C9477020C9477020C947702010001A192
:100080000004FC01A101A38001A301A400059D01BE
:10009000A401A68001A601A800059E01A801AD80CB
:1000A00011241FBECFEFD0E1DEBFCDBFECE7F0E003
:1000B00040E017C0B591A59135912591059107FDB7
:1000C0000CC095918591EF01F92FE82F05900D92C5
:1000D000A217B307D9F7FE0104C01D92A217B307F8
:1000E000E1F7E03AF40731F70E947A000C945502E8
:0400F000F894FFCFB2
:1000F400A8950FB6F894A8958091600088618093C4
:100104006000109260000FBE0E9410020E9435022F
:1001140078948FEF81B914B893EC97B99EEF9AB99C
:1001240082B983E888B91BB880E891E00E9446024E
:1001340012B82FE78AE196E0215080409040E1F721
:1001440000C0000080ED82B9EFE7FAE126E0E1505B
:10015400F0402040E1F700C000000E94E4010F2EAF
:10016400F9E9CF2EF1E0DF2EF02D0F2EF1EAEF2E7C
:10017400F1E0FF2EF02DF60180E28193EE15FF05EC
:10018400E1F78FEF98E0EDE381509040E040E1F734
:1001940000C000000E94E401D1E0BB24BA9468943A
:1001A400AA24A5F80F2EF7E09F2EF02D09E911E0FF
:1001B4008091A301882319F01092AB0102C0D0935F
:1001C400AB018091A9018F3F09F463C0F894809139
:1001D400A9010E942402F8E08F9FC00111242091FC
:1001E400A801FC01E05CFE4FE20FF11DC081C93C97
:1001F40039F0C03F41F0C83C81F4D093A50138C028
:10020400D093A40197C08091A301882319F0109280
:10021400A30190C0D093A3018DC02091A5012223F6
:1002240091F0CC232CF12091A301222371F0209191
:10023400A80180509F4FFC01E20FF11DC081109274
:10024400A5011092A401CC239CF08091A6018C17E7
:1002540079F08C2F0E946902C093A6011092A2012A
:100264001092A101CD3021F48AE00E9469020CC0F1
:10027400C33A51F483EA0E94690283EA8093A60197
:100284001092A2011092A101B092A901D093A701EA
:1002940078940E947102882309F48ACFF8940E940A
:1002A40060029091AC0198309CF0883009F19092F2
:1002B400AC01F8019181908392819183938192831F
:1002C4009481938395819483968195839781968372
:1002D4008A3021F08D3051F4F60101C0F601A1926B
:1002E400EE15FF05E1F71092AC0120C0883091F4BF
:1002F4008091AC0181501AF08093AC0102C010923D
:10030400AC01E091AC010E2E000CFF0BE756FE4F42
:10031400A0820CC09091AC01E92F092E000CFF0BB8
:10032400E756FE4F80839F5F9093AC010E94E401E7
:1003340078943ECF8091A501882309F484CF98CF87
:100344001F921FB61F9211248F939F9383B18F3FE7
:1003540061F08091A701882341F083B18093A901C2
:100364008091AA0181508093A8018091AA0182956D
:10037400880F807E8BB98091AA018830C0F01092DA
:10038400AA018091A1019091A20101969093A201EA
:100394008093A1018091A1019091A2014F9738F01F
:1003A4008FEF8093A6011092A2011092A101809177
:1003B400AA018F5F8093AA019F918F911F901FBE06
:0403C4001F901895D9
:1003C800F894E9E9F1E020E08191806882B9822F10
:1003D800880F880F8BB987E893E10197F1F700C080
:1003E80000008091AB0130E4839FC0011124806834
:1003F80088B987E893E10197F1F700C00000809180
:10040800AB0130E4839FC0011124836088B92F5F5A
:080418002830D1F67894089514
:10042000E1E8F0E08081886080838AEF90E090933B
:10043000890080938800AFE6B0E08C9182608C9355
:08044000808183608083089530
:10044800382F309530FD0BC081E092E0232F29230F
:1004580039F4990F8F5F8830C9F78FEF089580E0DE
:020468000895F5
:10046A001092C5008AE08093C400E0ECF0E080813D
:10047A008D7F80838EE08093C20088E18093C100E3
:02048A000895D3
:10048C00CF93DF93EC018881882331F021960E9471
:0E049C00690289918111FBCFDF91CF91089504
:1004AA00EC010E947C020E947B02CE010E947D0226
:0604BA00CE010E94790250
:1004C0008091C00088231CF48091C600089580E0CC
:0204D00008958D
:1004D200E0ECF0E0908195FFFDCF8093C600089597
:0C04E2008091C000881F8827881F0895A3
:0404EE000C9400006A
:0404F2000E947800EC
:0204F600089567
:0204F800089565
:0204FA00089563
:1004FC006162636465666768696A6B6C6D6E6F7068
:10050C007172737475767778797A292122A32425F0
:10051C005E262A285F2B7B7D3A407E3C3E3F7C202A
:10052C001112131408030D1B09C8F0CA80818283B1
:10053C004142434445464748494A4B4C4D4E4F5027
:10054C005152535455565758595A30313233343519
:10055C00363738392D3D5B5D3B27232C2E2F5C2005
:10056C001112131408030D1B09C8C9CA8081828398
:10057C000D0A504336353032204B65796265642064
:09058C00616C697665210D0A001D
:080595005043363530322120BD
:01059D00015C
:01059E00FF5D
:01059F00015A
:02000004008278
:03000000FF99FF66
:02000004008377
:01000000FF00
:00000001FF
